:020000040800F2
:1000000000200020250B0008090500080B0500084A
:1000100000000000000000000000000000000000E0
:100020000000000000000000000000000D050008B6
:1000300000000000000000000F0500081105000886
:10004000750B0008750B0008750B0008750B000890
:10005000750B0008750B0008750B0008750B000880
:10006000750B0008750B0008750B0008750B000870
:10007000750B0008750B0008750B0008750B000860
:10008000750B0008750B000800000000750B0008D8
:10009000750B0008E5030008750B0008750B0008D8
:1000A000750B0008750B0008750B0008750B000830
:1000B000750B000800000000750B00080000000030
:1000C00010B5064C2378002B07D1054B002B02D02E
:1000D000044800E000BF0123237010BD4800002049
:1000E00000000000D00B0008044B10B5002B03D01B
:1000F0000349044800E000BF10BDC04600000000F6
:100100004C000020D00B0008002243088B4274D31F
:1001100003098B425FD3030A8B4244D3030B8B4208
:1001200028D3030C8B420DD3FF22090212BA030C11
:100130008B4202D31212090265D0030B8B4219D3F2
:1001400000E0090AC30B8B4201D3CB03C01A524112
:10015000830B8B4201D38B03C01A5241430B8B425A
:1001600001D34B03C01A5241030B8B4201D30B0343
:10017000C01A5241C30A8B4201D3CB02C01A52416A
:10018000830A8B4201D38B02C01A5241430A8B422D
:1001900001D34B02C01A5241030A8B4201D30B0216
:1001A000C01A5241CDD2C3098B4201D3CB01C01A30
:1001B000524183098B4201D38B01C01A524143093A
:1001C0008B4201D34B01C01A524103098B4201D328
:1001D0000B01C01A5241C3088B4201D3CB00C01A95
:1001E000524183088B4201D38B00C01A524143080D
:1001F0008B4201D34B00C01A5241411A00D2014632
:10020000524110467047FFE701B5002000F006F8A4
:1002100002BDC0460029F7D076E770477047C04658
:1002200010B588B01B4B5A69802189020A435A6174
:100230005A690A400192019A5A698021C9020A4307
:100240005A615B690B400293029B03AC14220021AC
:10025000200000F090FC0123049300240BE00E4BDF
:100260006200D35A03930D4BA200D05803A900F0AB
:10027000F3F90134E4B2072CF1D903A90123039364
:1002800000224A608B609020C00500F0E5F908B0BC
:1002900010BDC046001002400800002018000020D9
:1002A00010B5002409E0064B6200D15A054BA200AC
:1002B000D058002200F09BFA0134072CF3DD10BD6A
:1002C000080000201800002010B5FFF7E9FF164CC9
:1002D00022782178154B4900C95A154B9200D05805
:1002E000012200F084FA2378002B04D1114B1B78F3
:1002F0005BB201330CD00C4B1B78072B0CD00D4B91
:100300001A7852B208490B789B18DBB20B7010BDFB
:10031000084B01221A70EEE7064B1B78012BEED139
:10032000044BFF221A70EAE76C000020080000204E
:100330001800002038000020421E034BD862002124
:100340005962024B1A6070470044014000000020CF
:1003500010B500F027F9040090200121C00500F03D
:100360003FFA012808D0002803D11A4B1B78022B32
:1003700015D001281ED010BD164B1B78012BF2D1D1
:10038000154A137801214B40DBB2137013485843D0
:100390001E30FFF7D1FF0F4B02221A70EBE7104B14
:1003A0001B68E31A0A2BE4D90D4B1C60094B002291
:1003B0001A70E0E7074B1B78002BDCD1084B1B6859
:1003C000E31A0A2BD7D9064B1C60024B01221A7084
:1003D000D1E7C0460400002064000020CA030000EA
:1003E0006800002010B5034800F043FA024B0122D8
:1003F0001A7010BD700000206D00002072B6FEE77C
:1004000010B50C480C4B03600C4B43600023836019
:100410000B4AC260036143618033836100F020FBBB
:10042000002804D1074B802292031A6010BDFFF709
:10043000E5FFC04670000020004401403F1F00005F
:10044000E703000000E100E010B51A4A136801213B
:100450008B431360174B1B68DB07FBD4164A1368EA
:1004600001210B431360144B1B689B07FBD5124BF8
:100470001A68F8218A4378390A431A605A68703139
:100480008A435A605A680D490A405A605A680321E3
:100490008A435A60084B5B680C221A42FAD108481A
:1004A00000F03AFB032000F039F8002800D110BD1D
:1004B000FFF7A4FF0020024000100240FFF8FFFFFA
:1004C00000127A0010B500F051F8FFF7BDFFFFF7FA
:1004D000A7FEFFF795FFFFF7E3FEFA208000FFF786
:1004E0002BFF074800F08AF9FFF732FF054B1B7816
:1004F000002BF9D0034B00221A70FFF7E5FEF3E75B
:10050000700000206D000020FEE7FEE77047704796
:1005100010B500F03BF810BD7047000070B5040046
:100520000F4B1D680F4B1978FA208000FFF7ECFD88
:1005300001002800FFF7E8FD00F08AF800280DD13F
:10054000032C01D901200AE00130002221004042A1
:1005500000F07AF8044B1C60002000E0012070BD20
:100560003C000020400000204400002010B5064A56
:10057000136810210B4313600320FFF7CFFF00F037
:100580009DFA002010BDC04600200240034A1168B9
:10059000034B1B785B1813607047C046B8000020FF
:1005A00040000020014B18687047C046B80000208A
:1005B00070B5002811DB8308134DC0339B005C59D4
:1005C00003221040C000FC3216008640B44389016B
:1005D0000A40824022435A5170BD0F230340083B1A
:1005E0009B0806339B00094A944663445C680322D7
:1005F0001040C000FC3215008540AC4389010A4020
:10060000824022435A60E7E700E100E000ED00E0AD
:10061000013880235B0498420FD2094A5060094890
:10062000036A1B021B0AC02109060B430362002355
:10063000936007331360002070470120FCE7C04639
:1006400010E000E000ED00E010B5FFF7B1FF10BDD5
:1006500010B5FFF7DDFF10BDF0B583B0002356E005
:1006600086685F000324BC40A643CC68BC4034438A
:100670008460446894434E683609012232409A40AF
:100680002243426053E0DE080836B6003758053290
:100690001A4092000F249440A7430C699440220012
:1006A0003A43325056E0032600E00026A6403400CC
:1006B0003C4302329200444E9451444A9768EA43C4
:1006C0003E00AE434C68E40201D53E002E433F4C51
:1006D000A660E7683E0016404C68A40201D53E00C3
:1006E0002E433A4CE66067683E0016404C68A4030F
:1006F00001D53E002E43354C6660266832404C687A
:10070000E40301D52A003243304C226001330C68E7
:100710002200DA4056D001229A40250015401442AA
:10072000F4D04E6803243440013C012C98D94C6825
:1007300003222240032A08D0C4685E000322B2408C
:1007400094438A68B2402243C2604C68032222402C
:10075000022A98D004685E0003221700B740BC4309
:100760004F683A40B240224302604C68C022920275
:100770001442CBD0164CA66901221643A661A46987
:1007800022400192019A9A08941CA4000E4EA75987
:1007900003241C40A4000F26A640B7439026F6056C
:1007A000B04282D00B4EB04208D00B4EB04207D0C0
:1007B0000A4EB04200D176E7052677E7012675E7B5
:1007C000022673E703B0F0BD0000014000040140C1
:1007D000001002400004004800080048000C0048D7
:1007E00003690B4201D0012070470020FCE7002A7A
:1007F00001D0816170478162FCE700003D23C35C4A
:10080000012B26D13C330222C2540268D368012155
:100810000B43D3600368114A93420FD08022D20564
:1008200093420BD00E4A934208D00E4A934205D011
:100830001A6801210A431A6000200BE09968072218
:100840000A40062A07D01A6801210A431A600020CC
:1008500000E0012070470020FCE7C046002C01406A
:1008600000040040004001407047704770477047E7
:10087000704770B504000368DE681D69AA070ED5CD
:10088000B2070CD5032252421A6101230377036891
:100890009B699B0751D0FFF7E9FF002323776B0784
:1008A00012D5730710D52368052252421A6102231C
:1008B000237723689A69C0239B001A4243D0200003
:1008C000FFF7D4FF002323772B0710D533070ED56E
:1008D0002368092252421A61042323772368DB69C3
:1008E0009B0737D02000FFF7C1FF00232377EB06DB
:1008F00012D5F30610D52368112252421A6108233B
:1009000023772368DA69C0239B001A4229D020008C
:10091000FFF7ACFF00232377EB0701D5F30727D4BC
:100920002B0601D533062BD46B0601D573062FD4C5
:10093000AD0601D5B60633D470BDFFF796FF200093
:10094000FFF795FFA9E72000FFF78FFF2000FFF7D3
:100950008EFFB7E72000FFF788FF2000FFF787FF33
:10096000C3E72000FFF781FF2000FFF780FFD1E7FA
:100970002368022252421A612000FFF775FFCFE779
:100980002368812252421A61200000F096F8CBE7DA
:100990002368412252421A612000FFF769FFC7E72E
:1009A0002368212252421A61200000F085F8C3E733
:1009B0000368244A904206D08022D205904202D099
:1009C000214A904203D1702293434A6813431D4A3F
:1009D000904212D08022D20590420ED01A4A904204
:1009E0000BD01A4A904208D0194A904205D0194AB1
:1009F000904202D0184A904203D1184A1A40CB685C
:100A00001343802293434A69134303608B68C36294
:100A10000B6883620B4B984208D00D4B984205D06F
:100A20000C4B984202D00C4B984201D10B690363E6
:100A3000012343610269134203D0036901229343F6
:100A400003617047002C014000040040002000407A
:100A5000004001400044014000480140FFFCFFFF0E
:100A600070B5041E26D03D23C35C002B1CD03D2551
:100A700002236355210001C9FFF79AFF0123462293
:100A8000A354083AA3540132A3540132A3540132AF
:100A9000A3540132A3540132A3540132A3540132AE
:100AA000A3546355002070BD3C330022C25400F0B3
:100AB0001DF8DCE70120F6E77047704782B00A4B6B
:100AC000996901221143996199690A400092009A3B
:100AD000DA69802149050A43DA61DB690B40019339
:100AE000019B02B07047C0460010024082B002680D
:100AF000074B9A4201D002B07047064B9A69802199
:100B000089020A439A619B690B400193019BF2E7BA
:100B10000044014000100240014B18607047C0467D
:100B20003C0000200D488546FFF7F6FC0C480D49B7
:100B30000D4A002302E0D458C4500433C4188C4238
:100B4000F9D30A4A0A4C002301E013600432A2429E
:100B5000FBD300F019F8FFF7B5FCFEE700200020FA
:100B60000000002048000020F00B00084800002092
:100B7000BC000020FEE703008218934200D17047BA
:100B800019700133F9E7000070B500260C4C0D4DCB
:100B9000641BA410A64209D1002600F019F80A4CE3
:100BA0000A4D641BA410A64205D170BDB300EB58DA
:100BB00098470136EEE7B300EB5898470136F2E765
:100BC000E80B0008E80B0008EC0B0008E80B000835
:100BD000F8B5C046F8BC08BC9E467047F8B5C0469C
:080BE000F8BC08BC9E467047FA
:040BE800E900000818
:040BEC00C10000083C
:100BF000E7030000020000000100020004000800FA
:100C0000100020004000800000040048000400485C
:100C100000040048000400480004004800040048A4
:100C200000040048000400480100000000127A009F
:080C30000100000004000000B7
:0400000508000B25BF
:00000001FF
