:020000040800F2
:1000000000200020D52D00085128000853280008A2
:1000100000000000000000000000000000000000E0
:10002000000000000000000000000000552800084B
:1000300000000000000000005728000859280008B0
:10004000252E0008252E0008252E0008252E000844
:10005000252E0008252E0008252E0008252E000834
:10006000252E0008252E0008252E0008252E000824
:10007000252E0008252E0008252E0008252E000814
:10008000252E0008252E000800000000252E00085F
:10009000252E0008A1220008252E0008252E000884
:1000A000252E0008252E0008252E0008252E0008E4
:1000B000252E000800000000252E0008000000008A
:1000C0000448054B10B5834203D0044B002B00D0ED
:1000D000984710BDA4000020A400002000000000EC
:1000E00006480749091A8B10C90FC91810B54910DD
:1000F00003D0044B002B00D0984710BDA400002073
:10010000A40000200000000010B5074C2378002B4D
:1001100009D1FFF7D5FF054B002B02D0044800E0C2
:1001200000BF0123237010BDA400002000000000C8
:10013000282E0008054B10B5002B03D004490548B4
:1001400000E000BFFFF7CCFF10BDC046000000007C
:10015000A8000020282E0008114B70B51C6805006F
:10016000236B002B03D000221D615A6170BD182043
:1001700000F00CF9031E20630CD00A4A0021026033
:10018000094A4260094A82600B228281012018617B
:100190005961E8E700224621054B064800F050F877
:1001A000000000200E33CDAB34126DE6ECDE05000E
:1001B000C42E0008DC2E0008184B70B51D682C6B8F
:1001C000002C0ED020696169154A164B01F06EFFB4
:1001D0000122002312184B4158004008226163613C
:1001E00070BD182000F0D2F8041E28630FD00E4B0B
:1001F000012203600D4B43600D4B83600B23838111
:1002000000230261436107480A4A064BE6E70022E1
:100210005221094B094800F013F8C04600000020A5
:100220002D7F954C2DF451580E33CDAB34126DE625
:10023000ECDE05002E7F954CC42E0008DC2E000855
:1002400070B514001A000A4B06001B6884B0D86809
:10025000002C0AD0074B084D019300913300290070
:10026000029400F0B3F800F035F8044B1C00F2E7FC
:1002700000000020082F0008182F0008142F000885
:10028000130010B50022FFF7DBFFC04670B50D4B21
:100290000D4D5E1BB610AB4205D0002408CD0134D5
:1002A0009847A642FAD802F0BFFD084B084D5E1BE6
:1002B000B610AB4205D0002408CD01349847A642C1
:1002C000FAD870BD842F0008842F0008882F0008FA
:1002D000842F0008062010B500F082FC012001F0F8
:1002E0006DFDC046F0B50500830749D0541E002AB5
:1002F00045D003000326CAB202E00135013C3ED3DB
:1003000001332A703342F8D1032C30D9FF220A403E
:100310001502AD182A04AD180F2C34D92700103F50
:100320003F093E01B4461E001A00103666441560AF
:1003300055609560D56010329642F8D101373F0183
:10034000DB190F270C22274022403C00002A0ED048
:100350003E1FB608B400A4461A001C1D644420C207
:10036000A242FCD103240136B6009B193C40002C6C
:1003700005D0C9B21C19197001339C42FBD1F0BDE4
:1003800003001400C0E72700E2E7C04610B5034BA6
:100390000100186800F0E8FE10BDC0460000002013
:1003A00010B5034B0100186800F066FF10BDC04691
:1003B000000000200CB400B583B004AB04CB019363
:1003C00000F050F803B008BC02B018470EB400B5F6
:1003D00082B003AB0100054804CB0068019300F034
:1003E00041F802B008BC03B01847C0460000002026
:1003F000936810B5013B9360002B04DA9469A34223
:1004000007DB0A2905D01368581C10600800197012
:1004100010BD00F071F9FBE7F8B506000F00002BE6
:100420000DD01400D51802E00134AC4207D03A00D8
:1004300030002178FFF7DCFF431CF5D1F8BD002028
:10044000FCE7C04610B5140092680023002A05D0CE
:10045000220000F0ABF900220300A2600022180085
:10046000626010BDF0B54E464546DE465746E0B5E3
:100470008146884614001E009FB0002803D0036AFE
:10048000002B00D11FE143469B891B0700D48FE05E
:1004900043461B69002B00D18AE0002306AD6B6147
:1004A00020336B761033AB765346A346874F0596C1
:1004B00003935B461B78002B00D19BE05C4603E076
:1004C00063780134002B7DD0252BF9D15B46E31AEC
:1004D0009A465C457BD12378002B00D18AE001232A
:1004E00000225B42069207930022002308920993A0
:1004F00000234332AB54AB6501339B46013406E025
:100500005A46C01B82401C0029680A432A60052203
:100510003800217801F088FA631C1E000028EFD112
:100520002A68D10602D5432120306854110702D52C
:1005300043212B20685421782A2967D1059B191D56
:100540001B680591002B00DA98E0EB6061782E299A
:1005500000D172E05E4C0322200001F065FA002811
:1005600006D04023001B83402A68013613432B60CA
:100570003178731C062257489B46297601F054FABD
:10058000002800D180E0544B002B67D005AA0092D0
:10059000290042464846514B00E000BF0390039BB0
:1005A000013327D0039A6B69944663446B6180E7FB
:1005B0004146484600F036FF002800D16DE7012093
:1005C00040421CE05B46E31A9A465C4512D03B0071
:1005D00000264746A0464C46994602E00136B24501
:1005E00043D95B463A002000995DFFF701FF0130D7
:1005F000F4D1B84643469B895B06E0D468691FB0D6
:10060000F0BCBB46B246A946A046F0BD0800303853
:10061000260009289BD8EA68140000E00133A200F4
:100620001219197852001418080030380928F5D921
:100630001E00EC602E2900D08CE771782A292DD17C
:10064000059BB01C1A1D1B6805926B60002B02DA1B
:1006500001235B426B60B17806007BE70722059BB4
:1006600007339343083305939CE74B466A69A146D9
:10067000524444466A61B8461F002CE75B42EB6077
:1006800002231A432A6061E705AA00922900424624
:100690004846124B01F00CF8039080E70800002355
:1006A000303801366B60092800D953E71A009300EF
:1006B0009B1871785B001A18080030380136092839
:1006C000F5D96A6046E700F029FCDCE6482F00080F
:1006D000502F0008542F00080000000019040008E3
:1006E00010B504001300034A10680A002100FFF748
:1006F000B9FE10BD00000020F8B505000E00140082
:10070000002802D0036A002B41D0A369A360A3890B
:100710001B071BD52369002B18D0FF22F7B2616994
:1007200016402268D31A99421FDD0133A1680139AE
:10073000A160511C2160177062699A421ED0A38982
:10074000DB0701D50A2E19D03000F8BD21002800A2
:1007500000F068FE002817D1FF222369F7B2616913
:1007600016402268D31A9942DFDC2100280000F0ED
:1007700093FC002808D101232268D7E72100280034
:1007800000F08AFC0028DFD001267642DCE700F08A
:10079000C5FBBAE7030010B50A0003490868190051
:1007A000FFF7AAFF10BDC04600000020F0B54E467E
:1007B000DE4657464546E0B5936883B00C00914647
:1007C0000090002B5FD00C23CA5E130763D50B6922
:1007D000002B60D04B461F68930723D5A36A0026E1
:1007E0009A46B34B00259846216A002D16D02B005F
:1007F000454500D9AE4B32000098D047002859DD5E
:100800004B464A469B6836181B1A2D1A9360002BDC
:1008100039D0A36A216A9A46002DE8D13E687D68E6
:100820000837E2E7D30762D50023B84600209A468E
:1008300000261F00002E45D000284CD03B00B346B8
:100840009E4200D99B4620682269A5686369904250
:1008500003D9ED18AB4500DDFEE05B4500DDEEE0C1
:10086000A56A5246216A0098A847051E22DD01208C
:100870007F1B19D04B464A469B68AA445B1B761BDC
:100880009360002BD6D1002003B0F0BCBB46B2462B
:10089000A946A046F0BD2100009800F0C3FD002845
:1008A0000DD10C23E25E95E72100009800F0F4FBE7
:1008B0000028DFD00C22A35E40221343A381012035
:1008C0004042E1E70822434694465E68E044002E39
:1008D000F8D01B689A4632000A21504601F0A4F86D
:1008E000002800D1DBE053460130C71AA6E70023F9
:1008F00080219A4689008B46564655462068A36853
:1009000084469846002D5CD059460A425DD09A46EE
:10091000AB4200D990E09023DB001A4232D021692B
:10092000431A6069019343001B18D80FC31858106D
:10093000019B824601335B19834201D99A46180014
:10094000520500D497E00100009800F00DFC8046AD
:10095000031E00D1A6E0019A216901F09FF8A38946
:10096000544A134080221343A38143462361019BD1
:100970001A004244944622605246A846AA46D31A18
:100980006261A36052463100604600F0D1FC4246ED
:10099000A8460025A36820689B1A5044A3602060E5
:1009A0004B4642469B6846449B1A4A46936000D198
:1009B00069E70C23E25E2068A36884469846002D10
:1009C000A2D13E687D6808379AE7226982421BD32C
:1009D00062699046AA4217D8802328001B069D42D0
:1009E00000D33548414601F075FA4346A26A4343B5
:1009F0009046216A32000098C047002800DC59E781
:100A000080464346ED1ACBE79846AB4200D9A8464C
:100A10004246310000F08CFC4246A36820689B1AD5
:100A20004044A3602060002BEBD12100009800F02F
:100A300033FB0028E5D03DE7A846AA46A2E75A4680
:100A4000514600F075FC5A46A3685D469B1AA360A8
:100A500023685B4423600AE751462A0000F068FCE3
:100A6000236821005B190098236000F015FB002823
:100A700000D1FCE61EE70200009800F039FD804638
:100A8000002800D071E7009D2169280000F0F4FBE8
:100A90008022A3899343743A1BB22A600CE7731C2B
:100AA0001F00CCE6009A0C3313600C22A35E03E710
:100AB00000FCFF7F7FFBFFFFFFFFFF7FC36B10B5D5
:100AC0000400002B01D0002010BD802100F04CFB61
:100AD000E063002806D002000023803208C0904264
:100AE000FCD1F0E701204042EEE7C04670B50500BA
:100AF0000C0016001F2907D8C06B002809D0A400DD
:100B000004192068266070BD16230360012040424E
:100B1000F9E78021280000F027FB010003000022F4
:100B2000E86380310028F1D004C38B42FCD1E6E7B2
:100B300070B505000C001F291ED8C36B002B0ED00A
:100B40008A009B181A68002A09D0012A05D0511C76
:100B50000ED00021200019609047002070BD2800B1
:100B600001F078F822000100280001F05FF8F5E7B5
:100B7000162303600120F1E71623036001204042A1
:100B8000ECE7C04670B505000C001F2924D8C36BE4
:100B9000002B14D0A2009B181A68002A09D0511CFF
:100BA0000BD0012A07D000212000196090470020B7
:100BB00070BD0120FCE70320FAE70220F8E780215E
:100BC00000F0D2FA031EE86306D000210200803054
:100BD00002C28242FCD1DDE701204042E8E7C04684
:100BE000144B70B504001D681F281DD8EB6B002B3B
:100BF0000DD082009B181A68002A08D0012A04D060
:100C0000511C0DD0002119609047002070BD2800B4
:100C100001F020F822000100280001F007F8F5E7B4
:100C2000162301202B60F1E7162301202B604042A0
:100C3000ECE7C04600000020114B70B504000E0028
:100C40001D681F2807D8E86B002809D0A4000419E4
:100C50002068266070BD16232B6001204042F9E712
:100C60008021280000F080FA010003000022E863E0
:100C700080310028F1D004C39942FCD1E6E7C04698
:100C8000000000200C4B10B51C68E36B002B01D05A
:100C9000002010BD8021200000F066FAE0630028EB
:100CA00006D002000023803208C09042FCD1EFE75A
:100CB00001204042EDE7C04600000020174B70B510
:100CC00004001D681F2825D8EB6B002B14D0A20050
:100CD0009B181A68002A09D0511C0BD0012A07D092
:100CE0000021200019609047002070BD0120FCE722
:100CF0000320FAE70220F8E78021280000F034FA08
:100D0000031EE86306D000210200803002C2904238
:100D1000FCD1DCE701204042E7E7C04600000020AC
:100D20000020704710B5034A0349044800F058FBFF
:100D300010BDC0465000002099100008040000209B
:100D400041680B4B10B50400994201D000F0A4F9A2
:100D5000A168084B994202D0200000F09DF9E1689B
:100D6000054B994202D0200000F096F910BDC04614
:100D7000C40000202C0100209401002000207047B6
:100D8000F8B5CE464746344C344B354A2000002552
:100D900080B51A600423082200215C30256065605C
:100DA000A560656625616561A561E360FFF79AFA54
:100DB0002C4B2000994663622B4B2C4F9846A36224
:100DC000CC23E5502A4B2B4E636780230822002159
:100DD000C430E550E7622663A566E5662567A5672A
:100DE000E5672462FFF77EFA220088236832E2502A
:100DF0004A460433E250424620000433E2500433B2
:100E0000E7500433E6503833E5500433E5500433FB
:100E1000E550194A5C33E550583BE2500433E55045
:100E20002D300433E550082204330021FF30E55013
:100E3000FFF758FA2200F023D032E2504A4604333A
:100E4000E25042460433E2500433E7500433E650A4
:100E5000C0BCB946B046F8BDC4000020C0000020A8
:100E6000250D0008711B00089D1B0008DD1B0008F4
:100E7000090001000D1C000812000200F8B5244B07
:100E800007001B68002B3BD0224E7368B468013BFF
:100E900003D51BE06834013B18D30C22A55E002D5E
:100EA000F8D120001C4B08220021E3606566256014
:100EB000A560656025616561A5615C30FFF712FA88
:100EC0006563A563A564E5642000F8BD3568002D61
:100ED00001D02E00D9E7D6213800490000F044F9AE
:100EE000041E10D00423D0220560250043600C307E
:100EF0000021A0605200FFF7F5F934602E00C4E72E
:100F0000FFF73EFFC0E70C2330603B60DCE7C046E4
:100F1000C0000020500000200100FFFF036A10B550
:100F2000002B00D010BD044B0362044B1B68002B48
:100F3000F8D1FFF725FFF5E7410D0008C0000020BC
:100F40007047C0467047C04610B50020024A0349AA
:100F500000F046FA10BDC04650000020210D0008E8
:100F600010B50020024A034900F03AFA10BDC0460D
:100F7000500000207D0D0008F0B5C64600B50C22DB
:100F80008B5E07000C001A073CD44A68002A5CDD1F
:100F9000E66A002E32D000223D68216A3A60DA0407
:100FA00057D4002201233800B0470200431C65D00B
:100FB0000C21635EE66A216A5B0706D56368D21A74
:100FC000636B002B01D0236CD21A00233800B0478A
:100FD000431C40D00023636023692360A389DB04A2
:100FE0004AD4616B3D60002908D023004433994204
:100FF00002D0380000F040F900236363002080BC79
:10100000B846F0BD0E69002EF8D00D680022AD1B69
:101010000E609B0700D14A69A260002D04DCEDE759
:1010200036182D1A002DE9DDA36A320098463800E3
:101030002B00216AC0470028F2DC4022A389134319
:101040001BB20120A3814042D9E70A6C002A9FDC31
:10105000D4E7626DB0E739680C22A35E1D2916D86B
:101060000C4ACA40D20712D500226260226922606F
:10107000DB04B6D50029B4D16065B2E73B68002B2C
:1010800096D01D2B01D0162BD7D13D60B6E740225C
:101090001343D6E7010040200B6970B505000C0032
:1010A000002B08D0002802D0036A002B0AD00C22A3
:1010B000A35E002B01D1002070BD21002800FFF7A6
:1010C0005BFFF9E7FFF72AFFF1E7C04670B5041EA2
:1010D00018D00F4B1D680369002B08D0002D02D0DB
:1010E0002B6A002B0AD00C22A35E002B01D100201A
:1010F00070BD21002800FFF73FFFF9E72800FFF748
:101100000DFFF0E7034A0449044800F069F9EFE7EE
:10111000000000205000002099100008040000206A
:1011200070B5104E050033680C00002B15D021005F
:10113000280000F00BFD431C0CD00323C41C9C436F
:10114000A04205D0211A280000F000FD013001D096
:10115000200070BD01246442FAE7002100F0F6FC93
:101160003060E4E7FC010020F8B50323CE46474693
:10117000CD1C9D430835060080B50C2D1ED20C25D4
:10118000A9421DD8300000F0C3FB3A4F7A68002A0C
:101190001AD0140004E063682200002B14D01C0055
:1011A00023685B1BF7D40B2B27D961192560944268
:1011B0005BD051600B6063684B600DE0002DDFDA9F
:1011C0000C230020336014E029003000FFF7A8FF53
:1011D0000400431C19D00560300000F09BFB200088
:1011E00007220B30231D9043C21A984201D01B1ACC
:1011F000A350C0BCB946B046F8BD6368944202D063
:101200005360E9E743467B60E6E77B689846002B3E
:1012100024D0444663689846002BFAD12368002105
:1012200099463000A14400F091FC814516D1236815
:101230003000ED1A2900FFF773FF01300ED023684C
:101240007A685B1923605368002B02D1DAE71A0031
:101250005B689C42FBD100235360BDE70C23300048
:10126000336000F057FB0020C3E779600B606368D0
:101270004B60B1E7FC01002070B50500002915D0D6
:101280000C1F2368002B23DB280000F041FB274ABA
:101290001368002B05D0A3420BD921686018834244
:1012A0002CD028006360146000F034FB70BDA342B2
:1012B00010D81A005B68002BF9D1106811188C4205
:1012C00018D02CD363605460280000F023FBEDE7B6
:1012D000E418D9E711685018A04214D01FD821682B
:1012E00060188342EED118685B6841182160636022
:1012F0005460E9E723681B181360E5E718685B682A
:1013000041182160CDE72068091850181160834208
:10131000DAD118685B68411811605360D4E70C2378
:1013200028002B6000F0F6FAC0E7C046000200205B
:10133000F0B588420AD98B18984207D2531E002A6A
:1013400003D0CA5CC254013BFBD2F0BD05000F2A9A
:101350000AD8561E002AF8D00023CC5C1A00EC54A0
:1013600001339642F9D1F0E703273E000D430C000C
:1013700003002E402F422DD11500103D2D09AC4603
:101380002F013F1825681D6065685D60A5689D6038
:10139000E5681034DD601D001033BD42F2D16546B2
:1013A0000F230C2401352D0149191340451914420E
:1013B00013D0043B9B0801339B008C59AC5104367D
:1013C0009E42FAD103231A40AD198919561E002AEC
:1013D000C2D1BAE70500561EBEE71A00B9E7C046FB
:1013E000F8B54746CE46884680B5814617000026A8
:1013F0007D68BC68013D0DD4A389012B07D90E225D
:10140000A35E013303D021004846C0470643683439
:10141000013DF1D23F68002FEAD13000C0BCB9468F
:10142000B046F8BD314B70B5050018680C000028B7
:1014300002D0026A002A4FD00C22A35E1A071DD5E3
:101440002269002A24D0D90708D50021A16061694A
:1014500000204942A161002A08D070BD00219807F0
:1014600000D461690020A160002AF6D11A06F4D5E3
:1014700040221343A38101204042EEE7DA062ED535
:101480005A0714D4226908210B43A381002ADAD118
:10149000A02180208900800019408142D3D0210002
:1014A000280000F039FA0C22A35E2269CBE7616BB9
:1014B00000290AD022004432914204D02800FFF7CC
:1014C000DBFE0C22A35E00226263242293430022EF
:1014D000626022692260D6E7FFF720FDACE70922AF
:1014E0002A6040221343A381C5E7C04600000020C4
:1014F000F0B5C64607000E00140000B500292DD037
:10150000002A27D000F088FB8046844203D83500AB
:101510004308A34210D321003800FFF725FE051E23
:101520000AD0220044450BD83100280000F0B6FA5A
:1015300031003800FFF7A0FE280080BCB846F0BD9F
:1015400031004246280000F0A9FA31003800FFF7C8
:1015500093FEF1E7FFF790FE0025EDE71100FFF79E
:1015600003FE0500E8E7C046F8B557464E46454637
:10157000DE46E0B51F000A9B924698460A698B68D2
:1015800006000C009A4200DA1A0053461A60432300
:10159000E35C002B02D0514601320A6022689106BA
:1015A00061D55346524606201B68023313602268F9
:1015B0001100104208D10020814619308346E168AD
:1015C000A344994247DC11004323E35C5A1E934134
:1015D00089060AD53020E1184331087045215A1C8C
:1015E000615CA218433202331170220039003000CE
:1015F0004332C04701301DD0534606251B68E168C1
:101600009C462368A26820692B40042B31D082427B
:1016100039DD00239946121A914400251A3402E05C
:1016200001354D452FDA0123220039003000C04733
:101630000130F5D101204042F0BCBB46B246A9467C
:10164000A046F8BD01239C465346E5681B68E1446B
:10165000ED1A4D4524DD01235A4639003000C047BC
:101660000130EFD1E6E7062111420ED05A1E934118
:10167000BBE76346C91ACB43DB170B40994682424E
:10168000C9DC0029C9DC0020D6E70020534681468A
:10169000193083461B68E168A3449942DBDC92E77A
:1016A00043232168E35C5A1E9341890692D49CE748
:1016B000F0B54E46994643239C4657464546DE467E
:1016C0008C446346E0B587B002930C00097E9046D7
:1016D0000700109A002914D00B00583BDBB2202BD6
:1016E00048D888489B00C3589F46136821681D1D31
:1016F000606915601B680E0602D4490600D5DCE05F
:1017000018600023029D23614B462100009338009E
:10171000434605AAFFF728FF01301ED02A004146A4
:1017200038002369C847013017D02368E068059E58
:101730009B071BD5B04219DD19239A460025A24408
:1017400004E0E0680135831BAB420FDD0123524604
:1017500041463800C8470130F3D10120404207B06C
:10176000F0BCBB46B246A946A046F0BDB042F6DA90
:101770003000F4E72500422301204235E1544323A1
:1017800000222061E254BFE713682168181D106031
:101790000D0602D44D0600D594E01A681600636861
:1017A000002A00DA92E0584A93460A2203924BE05C
:1017B0001368206840CB050601D440067FD413602F
:1017C000514B9B466F2900D191E00A23039337E0E8
:1017D00013682500191D11601A6842230120423543
:1017E000E254CCE71368191D11601D680021280020
:1017F000626800F019F9002800D181E0401B6060A8
:10180000BDE7202321680B432360452178206054E5
:101810003E498B46116840C9180603D4580601D5C5
:101820003604360C1160DA0702D5202213432360F8
:10183000002E03D1202223689343236010230393B7
:1018400043230022E2546368A360002B18DB0421C9
:1018500022688A432260002E12D1029D002B49D1BA
:10186000039B082B1ED0029B5B1B23614CE7452387
:101870005821E154244923688B46CBE72368C4E709
:10188000039B9A46029D3000514600F01FFB5B46C9
:101890005B5C013D2B70330006005345F3D2039B84
:1018A000082BE0D12368DB07DDD5626823699A4203
:1018B000D9DC3023013D2B70D5E7188021E73604B1
:1018C000360C7CE700269E5F320068E743222D201D
:1018D000A054A360002B02DB0423994321600A2358
:1018E0009A46094B76429B460A230393CAE708238C
:1018F0000393A5E75B4625001B7842352B70AFE7C5
:1019000060683CE7402E00085C2F0008702F00083C
:101910007047C0467047C046F0B50C23CD5E060048
:101920000C0097B0AA0707D5230047332360236133
:101930000123636117B0F0BD0E23C95E00292BDBC4
:101940006A4600F0B1F9002824DB8027FF00390047
:101950003000019DFFF708FC002833D08022A389C6
:1019600020601343A381F0231B021D4080232061CC
:1019700067619B019D42DDD130000E23E15E00F0E6
:10198000D3F80028D6D00322A3899343012213431E
:10199000A381CFE70C23E55E0F4B2D06ED171D400D
:1019A0008023DB009C46654429003000FFF7DCFB08
:1019B000002807D08022A38920601343A3812061DF
:1019C0006561B7E70C22A35E9A05B3D40322934363
:1019D00002221343A381A7E740FCFFFF70B50C0070
:1019E0001E000E23C95E150096B0002914DB6A465E
:1019F00000F05AF900280FDBF02301991B0219406F
:101A0000084B9C4661444B4259418023DB00002037
:101A100031602B6016B070BDA38900211B06F4D580
:101A20004023F4E700E0FFFF70B5CCB283070DD090
:101A3000531E002A0FD0032504E00130284206D0AF
:101A4000013B08D30278A242F7D170BD1300032BEB
:101A500003D8002B14D10020F7E7FF220A4015021B
:101A6000AD182A040B4EAD1803E0043B0430032BE1
:101A7000EFD9026808496A40511891433142F4D0C5
:101A8000C31802E001309842E5D00278A242F9D1B1
:101A9000DBE7C04680808080FFFEFEFEF0B50500DB
:101AA0000F2A31D903273E000D430C0003002E40BE
:101AB0002F4234D11500103D2D09AC462F013F189F
:101AC00065685D60A5689D60E568DD602568103427
:101AD0001D601D001033BD42F2D165460F230C245A
:101AE00001352D0149191340451914421AD0043B00
:101AF0009B0801339B008C59AC5104369E42FAD1AD
:101B00000323AD1989191A40561E002A06D0002356
:101B1000CC5C1A00EC5401339642F9D1F0BD0500BB
:101B2000561EF4E71A00EFE7002370B5064C0500D7
:101B30000800236000F00CF9431C00D070BD23683E
:101B4000002BFBD02B60F9E704020020002370B5C6
:101B5000064C05000800236000F01AF9431C00D071
:101B600070BD2368002BFBD02B60F9E70402002036
:101B700070B50C000E25495F00F082F8002803DBE9
:101B8000636D1B18636570BDA389024A1340A3816E
:101B9000F9E7C046FFEFFFFF00207047F8B50C00E3
:101BA0001F000C23C95E05001600CB050AD40A4BA2
:101BB000320019402800A1810E23E15E3B0000F0B5
:101BC0009BF8F8BD0E23E15E0022022300F080F8AE
:101BD0000C23E15EEBE7C046FFEFFFFF70B50C00A2
:101BE0000E25495F00F074F8431C07D08023A289BA
:101BF0005B0113431BB26065A38170BDA389024AD8
:101C000013401BB2F8E7C046FFEFFFFF10B50E23ED
:101C1000C95E00F023F810BD0B1F1B68181F002BB6
:101C200000DB70470B58C018FBE7C046002370B5B7
:101C3000074D0400080011002B6000F091F8431CD0
:101C400000D070BD2B68002BFBD02360F9E7C046A5
:101C50000402002010B500F073F810BD002370B529
:101C6000064C05000800236000F05AF8431C00D021
:101C700070BD2368002BFBD02B60F9E70402002025
:101C800070B50400080011001A000023054D2B60F8
:101C900000F076F8431C00D070BD2B68002BFBD001
:101CA0002360F9E704020020002370B5074D04000B
:101CB000080011002B6000F03BF8431C00D070BD01
:101CC0002B68002BFBD02360F9E7C04604020020FC
:101CD00070B50400080011001A000023054D2B60A8
:101CE00000F046F8431C00D070BD2B68002BFBD0E1
:101CF0002360F9E70402002070B504000800110019
:101D00001A000023054D2B6000F050F8431C00D052
:101D100070BD2B68002BFBD02360F9E70402002084
:101D200058220120014B40421A60704704020020F3
:101D300058220120014B40421A60704704020020E3
:101D400058220120014B40421A60704704020020D3
:101D50005822024B00201A607047C046040200203F
:101D600058220120014B40421A60704704020020B3
:101D700058220120014B40421A60704704020020A3
:101D800058220120014B40421A6070470402002093
:101D9000044A03001068002802D0C318136070477B
:101DA0000148FAE70802002088020020582201209A
:101DB000014B40421A60704704020020FEE7C04613
:101DC000002243088B4274D303098B425FD3030A7A
:101DD0008B4244D3030B8B4228D3030C8B420DD38D
:101DE000FF22090212BA030C8B4202D3121209021B
:101DF00065D0030B8B4219D300E0090AC30B8B4259
:101E000001D3CB03C01A5241830B8B4201D38B0306
:101E1000C01A5241430B8B4201D34B03C01A5241AB
:101E2000030B8B4201D30B03C01A5241C30A8B42EE
:101E300001D3CB02C01A5241830A8B4201D38B02D9
:101E4000C01A5241430A8B4201D34B02C01A52417D
:101E5000030A8B4201D30B02C01A5241CDD2C309EF
:101E60008B4201D3CB01C01A524183098B4201D36B
:101E70008B01C01A524143098B4201D34B01C01A56
:101E8000524103098B4201D30B01C01A5241C308CE
:101E90008B4201D3CB00C01A524183088B4201D33D
:101EA0008B00C01A524143088B4201D34B00C01A29
:101EB0005241411A00D20146524110467047FFE795
:101EC00001B5002000F0F0F802BDC0460029F7D0AF
:101ED00076E7704703460B437FD4002243088B42CA
:101EE00074D303098B425FD3030A8B4244D3030BA1
:101EF0008B4228D3030C8B420DD3FF22090212BA66
:101F0000030C8B4202D31212090265D0030B8B42E1
:101F100019D300E0090AC30B8B4201D3CB03C01ACB
:101F20005241830B8B4201D38B03C01A5241430BA6
:101F30008B4201D34B03C01A5241030B8B4201D396
:101F40000B03C01A5241C30A8B4201D3CB02C01A01
:101F50005241830A8B4201D38B02C01A5241430A79
:101F60008B4201D34B02C01A5241030A8B4201D368
:101F70000B02C01A5241CDD2C3098B4201D3CB010F
:101F8000C01A524183098B4201D38B01C01A5241BE
:101F900043098B4201D34B01C01A524103098B42C2
:101FA00001D30B01C01A5241C3088B4201D3CB00AD
:101FB000C01A524183088B4201D38B00C01A524190
:101FC00043088B4201D34B00C01A5241411A00D240
:101FD00001465241104670475DE0CA0F00D04942A9
:101FE000031000D34042534000229C4603098B4219
:101FF0002DD3030A8B4212D3FC22890112BA030AA1
:102000008B420CD3890192118B4208D38901921122
:102010008B4204D389013AD0921100E08909C309A7
:102020008B4201D3CB01C01A524183098B4201D3A9
:102030008B01C01A524143098B4201D34B01C01A94
:10204000524103098B4201D30B01C01A5241C3080C
:102050008B4201D3CB00C01A524183088B4201D37B
:102060008B00C01A5241D9D243088B4201D34B0096
:10207000C01A5241411A00D20146634652415B10D8
:10208000104601D34042002B00D5494270476346B9
:102090005B1000D3404201B5002000F005F802BDFE
:1020A0000029F8D016E770477047C046F0B5CE4615
:1020B0009946030C9C46130447461B0C1D000E005A
:1020C00061460404240C80B50700100C4B436543A3
:1020D000414360432C0CC01824188C46A34203D9FA
:1020E00080235B029846C444494679435643230CF7
:1020F0002D042D0C8919634424046019C918C0BC2F
:10210000B946B046F0BDC046F0B5DE4657464E462D
:102110004546E0B58BB01822002104A8FEF7E2F88E
:102120005D4B5A698021C9030A435A615A690A40C2
:102130000392039A5A69802189020A435A615A69B3
:102140000A400292029A5A698021C9020A435A61DE
:102150005B690B400193019B504D0126AE62022347
:102160009A46AB6202339946AB6204339846AB623F
:1021700008339B46AB621033AB624022AA628021D7
:10218000A962049608969027FF0504A8010038006C
:1021900000F067FB5046049000240594089604A8BC
:1021A0000100380000F05DFB484604900594089655
:1021B00004A80100380000F054FB40460490059448
:1021C000089604A80100380000F04BFB0496059621
:1021D00006940794089404A80100280000F041FB2D
:1021E00050460490059606940794089404A80100AC
:1021F000280000F036FB48460490059606940794A4
:10220000089404A80100280000F02BFB404604902D
:10221000059606940794089404A80100280000F08D
:1022200020FB58460490059606940794089404A849
:102230000100280000F015FB202304930596069466
:102240000794089404AB1900280000F00AFB402210
:102250000492059606940794089404AB190028008C
:1022600000F0FFFA802104910596069407940894E3
:1022700004A9280000F0F5FA80239B00049305943C
:10228000089404A9280000F0ECFA0BB0F0BCBB469F
:10229000B246A946A046F0BD001002400004004826
:1022A00010B5034800F03DFC024B01221A7010BD2E
:1022B000380200203602002010B500240AE0074B47
:1022C0006200D15A064BA200D058002200F0CBFB8E
:1022D0000134E4B2072CF2D910BDC04668000020DA
:1022E0007800002010B50400FFF7E6FF072C00D9A6
:1022F00010BD054B6200D15A044BA400E0580022E7
:1023000000F0B1FBF4E7C046680000207800002030
:1023100070B50400064D280000F0E2FB2B68013C7C
:10232000DC6200225A62280000F0A4FB70BDC046A7
:102330003802002010B5154B1878C0B2FFF7D2FF55
:10234000134B1B78012B09D0104B1B78002B17D097
:102350000E4A1378013BDBB2137010BD0B4B1B7898
:10236000DBB2062B05D8094A13780133DBB21370B0
:10237000F3E7074B00221A70044B06321A70ECE7A1
:10238000034B01221A70014B1A70E6E73702002056
:102390006400002010B500240AE0214B6200D15AED
:1023A000204BA200D058002200F05DFB0134E4B2C3
:1023B000072C0ED81C4B1B78DBB2A342EDD0184B78
:1023C0006200D15A174BA200D058012200F04BFBFB
:1023D000ECE7164B1B78012B09D0134B1B78002B15
:1023E00017D0114A1378013BDBB2137010BD0E4BAE
:1023F0001B78DBB2062B05D80B4A13780133DBB20E
:102400001370F3E7094B00221A70074B06321A705B
:10241000ECE7064B01221A70034B1A70E6E7C04640
:1024200068000020780000203702002064000020AF
:1024300072B6FEE710B50C480C4B03600C4B4360C2
:10244000002383600B4AC260036143618033836170
:1024500000F05EFC002804D1074B802292031A6032
:1024600010BDFFF7E5FFC0463802002000440140E0
:102470003F1F0000E703000000E100E010B51A4A2A
:10248000136801218B431360174B1B68DB07FBD4D8
:10249000164A136801210B431360144B1B689B07FA
:1024A000FBD5124B1A68F8218A4378390A431A601F
:1024B0005A6870318A435A605A680D490A405A6016
:1024C0005A6803218A435A60084B5B680C221A42FF
:1024D000FAD1084800F078FC032000F01FFA002829
:1024E00000D110BDFFF7A4FF002002400010024001
:1024F000FFF8FFFF00127A00F0B5DE4657464E4661
:102500004546E0B583B000F031FAFFF7B7FFFFF7BB
:10251000FBFDFFF78FFFB64800F0ACFAFFF7CCFEEB
:102520002A20FDF719FE64E0B24B1B684246D31A1D
:10253000322B00D880E0AF4B1A60AF4B1A68FA23F9
:102540009B009A4208D0AC4BFA2292001A60AA4B28
:102550001868FFF7DDFE6FE0A74BFA2252001A6001
:10256000F5E7A64B1B684246D31A322B6BD9A34B17
:102570001A60A34A00231370A24A1370A24A0121D1
:102580001170A24A1370FFF797FE5CE0A04B1B6826
:102590004246D31A322B5DD99D4B1A60984B0121CC
:1025A0001970984B00221A70974B1970974B1A703C
:1025B000FFF782FE4EE0974B1B684246D31A322B40
:1025C0004FD9944B1A608E4B02221A708F4B002207
:1025D0001A70FFF771FE44E0894B1B78012B56D02F
:1025E000874B1B78022B5CD0854B1B78032B00D1CB
:1025F000F8E000F0D7F980469024E405012120009E
:1026000000F02AFA07000221200000F025FA060057
:1026100082460421200000F01FFA050081460821AF
:10262000200000F019FA04000190002F04D17A4B29
:102630001B78012B00D177E75346002B03D1774B52
:102640001B78012B8DD04B46002B03D1744B1B788C
:10265000012B9BD0019B002B03D1724B1B78012BCC
:10266000A9D06D4B1F706D4B1E706D4B1D706D4B67
:102670001C70634B1B78002BAED16B4B1B78002B6F
:10268000AAD0FFF757FE684B00221A70B1E7664BDD
:102690001B78002BA4D0FFF77DFE634B00221A703D
:1026A000A7E75A4B1B78DCB2012B4DD0022C5CD033
:1026B000002C00D090E05C4B1B78002B99D0FDF7EC
:1026C0007BFDC217120E8018FF2303409B1ADBB25A
:1026D000564A1370564B00221A700AE0554B62009E
:1026E000D15A554BA200D058002200F0BCF9013459
:1026F000E4B2072C18D84D4B1B78DBB22341DB0723
:10270000ECD54C4B6200D15A4B4BA200D058012261
:1027100000F0A9F9464A1378DBB24849CC54137843
:102720000133DBB21370E2E7FDF746FD4449FFF7E2
:10273000B7FC64314144434A1160344B01221A70A2
:10274000394B00221A7054E73E4B1B68434508D8AA
:102750003D4B00221A703D4B42461A602B4B022221
:102760001A70314B00221A7043E7374B1A78D2B2F5
:102770002F4B1B78DBB29A4203D2344B1B68434584
:1027800003D9294B00221A7033E72F4C2378DBB290
:102790002A4AD35C274A5900895A274A9B009858ED
:1027A000002200F060F923780133DBB22370227835
:1027B000D2B21F4B1B78DBB29A4203D3134B0022D9
:1027C0001A70DEE7FDF7F8FC3321FFF769FC64318E
:1027D00041441E4A1160D4E70C4B00221A70124B80
:1027E0001A7006E7FFF768FD0F4B00221A7000E72A
:1027F000380200201802002060000020140200208F
:10280000650000203702002064000020350200200F
:10281000100200200C0200205F0000205E0000205B
:102820005D0000205C000020360200203402002001
:102830001C020020680000207800002020020020F8
:102840007905000030020020280200202C02002020
:10285000FEE7FEE77047704710B500F097F810BD2F
:102860007047F0B5002216E00B699C46C4682B0047
:102870006B435E00F618F743B44366465E43344349
:10288000C4604C68022C26D04D6804683C406B4301
:102890002343036001320C682300D3403BD0012363
:1028A000934025001D401C42F4D04B68013B012B96
:1028B000DAD88F6883682C006C4366003619B343FE
:1028C0007C43234383600E68CC684368B3437443FE
:1028D00023434360C8E7FF2D0DD84C69A446066A20
:1028E0001C006C436C4325012D1BAE4365466C43B5
:1028F00034430462C8E74C69A446466A2D0A2C009A
:102900006C436C436C4325012D1BAE4365466C4301
:1029100034434462B8E70020F0BD000010B5040065
:102920000F4B1978FA208000FFF74AFA01000D4B8F
:102930001868FFF745FA00F08BF800280DD1032C3A
:1029400001D901200AE0013000222100404200F0BC
:102950007BF8054B1C60002000E0012010BDC04644
:102960009C00002098000020A000002010B5064A1E
:10297000136810210B4313600320FFF7CFFF00F013
:10298000F5F9002010BDC04600200240034A11683E
:10299000034B1B785B1813607047C0468002002011
:1029A0009C000020014B18687047C0468002002040
:1029B00070B5002811DB8308134DC0339B005C59B0
:1029C00003221040C000FC3216008640B443890147
:1029D0000A40824022435A5170BD0F230340083BF6
:1029E0009B0806339B00094A944663445C680322B3
:1029F0001040C000FC3215008540AC4389010A40FC
:102A0000824022435A60E7E700E100E000ED00E089
:102A1000013880235B0498420FD2094A506009486C
:102A2000036A1B021B0AC02109060B430362002331
:102A3000936007331360002070470120FCE7C04615
:102A400010E000E000ED00E010B5FFF7B1FF10BDB1
:102A500010B5FFF7DDFF10BD03690B4201D0012067
:102A600070470020FCE7002A01D081617047816235
:102A7000FCE700003D23C35C012B26D13C3302223E
:102A8000C2540268D36801210B43D3600368114A22
:102A900093420FD08022D20593420BD00E4A93422C
:102AA00008D00E4A934205D01A6801210A431A60E1
:102AB00000200BE0996807220A40062A07D01A680E
:102AC00001210A431A60002000E001207047002025
:102AD000FCE7C046002C01400004004000400140DB
:102AE0000268D36801218B43D3600368196A084ADE
:102AF000114207D1196A074A114203D11A6801210C
:102B00008A431A603D230122C25400207047C04608
:102B1000111100004404000070477047704770476F
:102B2000704770B504000368DE681D69AA070ED5FA
:102B3000B2070CD5032252421A61012303770368BE
:102B40009B699B0751D0FFF7E9FF002323776B07B1
:102B500012D5730710D52368052252421A61022349
:102B6000237723689A69C0239B001A4243D0200030
:102B7000FFF7D4FF002323772B0710D533070ED59B
:102B80002368092252421A61042323772368DB69F0
:102B90009B0737D02000FFF7C1FF00232377EB0608
:102BA00012D5F30610D52368112252421A61082368
:102BB00023772368DA69C0239B001A4229D02000BA
:102BC000FFF7ACFF00232377EB0701D5F30727D4EA
:102BD0002B0601D533062BD46B0601D573062FD4F3
:102BE000AD0601D5B60633D470BDFFF796FF2000C1
:102BF000FFF795FFA9E72000FFF78FFF2000FFF701
:102C00008EFFB7E72000FFF788FF2000FFF787FF60
:102C1000C3E72000FFF781FF2000FFF780FFD1E727
:102C20002368022252421A612000FFF775FFCFE7A6
:102C30002368812252421A61200000F096F8CBE707
:102C40002368412252421A612000FFF769FFC7E75B
:102C50002368212252421A61200000F085F8C3E760
:102C60000368244A904206D08022D205904202D0C6
:102C7000214A904203D1702293434A6813431D4A6C
:102C8000904212D08022D20590420ED01A4A904231
:102C90000BD01A4A904208D0194A904205D0194ADE
:102CA000904202D0184A904203D1184A1A40CB6889
:102CB0001343802293434A69134303608B68C362C2
:102CC0000B6883620B4B984208D00D4B984205D09D
:102CD0000C4B984202D00C4B984201D10B69036314
:102CE000012343610269134203D003690122934324
:102CF00003617047002C01400004004000200040A8
:102D0000004001400044014000480140FFFCFFFF3B
:102D100070B5041E26D03D23C35C002B1CD03D257E
:102D200002236355210001C9FFF79AFF01234622C0
:102D3000A354083AA3540132A3540132A3540132DC
:102D4000A3540132A3540132A3540132A3540132DB
:102D5000A3546355002070BD3C330022C25400F0E0
:102D60001DF8DCE70120F6E77047704782B00A4B98
:102D7000996901221143996199690A400092009A68
:102D8000DA69802149050A43DA61DB690B40019366
:102D9000019B02B07047C0460010024082B002683A
:102DA000074B9A4201D002B07047064B9A698021C6
:102DB00089020A439A619B690B400193019BF2E7E8
:102DC0000044014000100240014B18607047C046AB
:102DD000980000200D488546FFF742FD0C480D493C
:102DE0000D4A002302E0D458C4500433C4188C4266
:102DF000F9D30A4A0A4C002301E013600432A242CC
:102E0000FBD3FDF743FAFFF777FBFEE70020002036
:102E100000000020A40000208C2F0008A400002047
:102E200084020020FEE70000F8B5C046F8BC08BCEC
:102E30009E467047F8B5C046F8BC08BC9E46704731
:102E40006E1800087417000874170008741700083B
:102E50007417000874170008741700087417000826
:102E6000741700087417000874170008D0170008BA
:102E700088170008741700087417000874170008F2
:102E800074170008881700087417000874170008E2
:102E90007417000874170008EA160008B017000835
:102EA000021800087417000874170008E4170008D7
:102EB00074170008B017000874170008741700088A
:102EC0007C1800085245454E54206D616C6C6F6350
:102ED0002073756363656564656400002E2E2F2E74
:102EE0002E2F2E2E2F2E2E2F2E2E2F2E2E2F6E6586
:102EF000776C69622F6C6962632F7374646C6962AA
:102F00002F72616E642E63002C2066756E63746987
:102F10006F6E3A2000000000617373657274696F10
:102F20006E2022257322206661696C65643A2066F2
:102F3000696C6520222573222C206C696E65202522
:102F400064257325730A0000232D302B2000000018
:102F5000686C4C0065666745464700003031323387
:102F60003435363738394142434445460000000085
:102F700030313233343536373839616263646566EF
:042F8000000000004D
:042F8400350100080B
:042F88000901000833
:102F8C000400002000000000C40000202C010020E0
:102F9C009401002000000000000000000000000070
:102FAC000000000000000000000000000000000015
:102FBC000000000000000000000000000000000005
:102FCC0000000000000000000000000000000000F5
:102FDC000000000003000000C400002001010101FA
:102FEC00E8030000010300000100020004000800D7
:102FFC00100020004000800000040048000400483D
:10300C000004004800040048000400480004004884
:10301C00000400480004004800127A00010000007F
:04302C00040000009C
:0400000508002DD5ED
:00000001FF
